{
  "contractName": "orbitaintoken",
  "abi": [
    {
      "inputs": [],
      "stateMutability": "nonpayable",
      "type": "constructor"
    },
    {
      "anonymous": false,
      "inputs": [
        {
          "indexed": false,
          "internalType": "uint256",
          "name": "window",
          "type": "uint256"
        },
        {
          "indexed": false,
          "internalType": "address",
          "name": "user",
          "type": "address"
        },
        {
          "indexed": false,
          "internalType": "uint256",
          "name": "amount",
          "type": "uint256"
        }
      ],
      "name": "LogClaim",
      "type": "event"
    },
    {
      "anonymous": false,
      "inputs": [
        {
          "indexed": false,
          "internalType": "uint256",
          "name": "window",
          "type": "uint256"
        },
        {
          "indexed": false,
          "internalType": "address",
          "name": "user",
          "type": "address"
        },
        {
          "indexed": false,
          "internalType": "uint256",
          "name": "amount",
          "type": "uint256"
        }
      ],
      "name": "LogContribution",
      "type": "event"
    },
    {
      "anonymous": false,
      "inputs": [
        {
          "indexed": false,
          "internalType": "address",
          "name": "user",
          "type": "address"
        },
        {
          "indexed": false,
          "internalType": "string",
          "name": "key",
          "type": "string"
        },
        {
          "indexed": false,
          "internalType": "uint256",
          "name": "amount",
          "type": "uint256"
        }
      ],
      "name": "LogRegister",
      "type": "event"
    },
    {
      "anonymous": false,
      "inputs": [
        {
          "indexed": true,
          "internalType": "address",
          "name": "from",
          "type": "address"
        },
        {
          "indexed": true,
          "internalType": "address",
          "name": "to",
          "type": "address"
        },
        {
          "indexed": false,
          "internalType": "uint256",
          "name": "amount",
          "type": "uint256"
        }
      ],
      "name": "Transfer",
      "type": "event"
    },
    {
      "inputs": [],
      "name": "createFirstDay",
      "outputs": [
        {
          "internalType": "uint256",
          "name": "",
          "type": "uint256"
        }
      ],
      "stateMutability": "view",
      "type": "function"
    },
    {
      "inputs": [],
      "name": "createPerDay",
      "outputs": [
        {
          "internalType": "uint256",
          "name": "",
          "type": "uint256"
        }
      ],
      "stateMutability": "view",
      "type": "function"
    },
    {
      "inputs": [],
      "name": "name",
      "outputs": [
        {
          "internalType": "string",
          "name": "",
          "type": "string"
        }
      ],
      "stateMutability": "view",
      "type": "function"
    },
    {
      "inputs": [],
      "name": "numberOfDays",
      "outputs": [
        {
          "internalType": "uint256",
          "name": "",
          "type": "uint256"
        }
      ],
      "stateMutability": "view",
      "type": "function"
    },
    {
      "inputs": [],
      "name": "openTime",
      "outputs": [
        {
          "internalType": "uint256",
          "name": "",
          "type": "uint256"
        }
      ],
      "stateMutability": "view",
      "type": "function"
    },
    {
      "inputs": [],
      "name": "startTime",
      "outputs": [
        {
          "internalType": "uint256",
          "name": "",
          "type": "uint256"
        }
      ],
      "stateMutability": "view",
      "type": "function"
    },
    {
      "inputs": [],
      "name": "symbol",
      "outputs": [
        {
          "internalType": "string",
          "name": "",
          "type": "string"
        }
      ],
      "stateMutability": "view",
      "type": "function"
    },
    {
      "inputs": [],
      "name": "totalBurnt",
      "outputs": [
        {
          "internalType": "uint256",
          "name": "",
          "type": "uint256"
        }
      ],
      "stateMutability": "view",
      "type": "function"
    },
    {
      "inputs": [],
      "name": "totalMinted",
      "outputs": [
        {
          "internalType": "uint256",
          "name": "",
          "type": "uint256"
        }
      ],
      "stateMutability": "view",
      "type": "function"
    },
    {
      "inputs": [],
      "name": "totalSupply",
      "outputs": [
        {
          "internalType": "uint256",
          "name": "",
          "type": "uint256"
        }
      ],
      "stateMutability": "view",
      "type": "function"
    },
    {
      "stateMutability": "payable",
      "type": "receive"
    },
    {
      "inputs": [],
      "name": "decimals",
      "outputs": [
        {
          "internalType": "uint8",
          "name": "",
          "type": "uint8"
        }
      ],
      "stateMutability": "view",
      "type": "function"
    },
    {
      "inputs": [
        {
          "internalType": "uint256",
          "name": "amount",
          "type": "uint256"
        }
      ],
      "name": "Withdraw",
      "outputs": [],
      "stateMutability": "nonpayable",
      "type": "function"
    },
    {
      "inputs": [
        {
          "internalType": "uint256",
          "name": "slotNumber",
          "type": "uint256"
        }
      ],
      "name": "contribute",
      "outputs": [],
      "stateMutability": "payable",
      "type": "function"
    },
    {
      "inputs": [],
      "name": "contributeNow",
      "outputs": [],
      "stateMutability": "payable",
      "type": "function"
    },
    {
      "inputs": [
        {
          "internalType": "uint256",
          "name": "slotNumber",
          "type": "uint256"
        }
      ],
      "name": "claimToken",
      "outputs": [],
      "stateMutability": "nonpayable",
      "type": "function"
    },
    {
      "inputs": [
        {
          "internalType": "uint16",
          "name": "day",
          "type": "uint16"
        }
      ],
      "name": "setRegDate",
      "outputs": [],
      "stateMutability": "nonpayable",
      "type": "function"
    },
    {
      "inputs": [
        {
          "internalType": "uint256",
          "name": "amount",
          "type": "uint256"
        },
        {
          "internalType": "string",
          "name": "publicKey",
          "type": "string"
        }
      ],
      "name": "burnToRegister",
      "outputs": [],
      "stateMutability": "nonpayable",
      "type": "function"
    },
    {
      "inputs": [],
      "name": "balance",
      "outputs": [
        {
          "internalType": "uint256",
          "name": "",
          "type": "uint256"
        }
      ],
      "stateMutability": "view",
      "type": "function"
    },
    {
      "inputs": [],
      "name": "ownerAddress",
      "outputs": [
        {
          "internalType": "address",
          "name": "",
          "type": "address"
        }
      ],
      "stateMutability": "view",
      "type": "function"
    },
    {
      "inputs": [
        {
          "internalType": "address",
          "name": "account",
          "type": "address"
        }
      ],
      "name": "balanceOf",
      "outputs": [
        {
          "internalType": "uint256",
          "name": "",
          "type": "uint256"
        }
      ],
      "stateMutability": "view",
      "type": "function"
    },
    {
      "inputs": [],
      "name": "totalDailyContribution",
      "outputs": [
        {
          "internalType": "uint256[351]",
          "name": "result",
          "type": "uint256[351]"
        }
      ],
      "stateMutability": "view",
      "type": "function"
    },
    {
      "inputs": [
        {
          "internalType": "address",
          "name": "user",
          "type": "address"
        }
      ],
      "name": "userContributed",
      "outputs": [
        {
          "internalType": "uint256[351]",
          "name": "result",
          "type": "uint256[351]"
        }
      ],
      "stateMutability": "view",
      "type": "function"
    },
    {
      "inputs": [
        {
          "internalType": "address",
          "name": "user",
          "type": "address"
        }
      ],
      "name": "userClaims",
      "outputs": [
        {
          "internalType": "bool[351]",
          "name": "result",
          "type": "bool[351]"
        }
      ],
      "stateMutability": "view",
      "type": "function"
    },
    {
      "inputs": [
        {
          "internalType": "address",
          "name": "from",
          "type": "address"
        },
        {
          "internalType": "address",
          "name": "to",
          "type": "address"
        },
        {
          "internalType": "uint256",
          "name": "amount",
          "type": "uint256"
        }
      ],
      "name": "transferFrom",
      "outputs": [
        {
          "internalType": "bool",
          "name": "",
          "type": "bool"
        }
      ],
      "stateMutability": "nonpayable",
      "type": "function"
    },
    {
      "inputs": [
        {
          "internalType": "address",
          "name": "to",
          "type": "address"
        },
        {
          "internalType": "uint256",
          "name": "amount",
          "type": "uint256"
        }
      ],
      "name": "transfer",
      "outputs": [
        {
          "internalType": "bool",
          "name": "",
          "type": "bool"
        }
      ],
      "stateMutability": "nonpayable",
      "type": "function"
    }
  ],
  "bytecode": "0x60806040526040518060400160405280600881526020017f4f7262697461696e0000000000000000000000000000000000000000000000008152506000908051906020019062000051929190620003d8565b506040518060400160405280600481526020017f4f52425400000000000000000000000000000000000000000000000000000000815250600190805190602001906200009f929190620003d8565b5033600260006101000a81548173ffffffffffffffffffffffffffffffffffffffff021916908373ffffffffffffffffffffffffffffffffffffffff160217905550620000f16200020260201b60201c565b600a620000ff919062000622565b633b9aca0062000110919062000673565b6008556362752080600b5563627522d8600c5561015e600d55620001396200020260201b60201c565b600a62000147919062000622565b6308f0d18062000158919062000673565b600e556200016b6200020260201b60201c565b600a62000179919062000622565b621e848062000189919062000673565b600f553480156200019957600080fd5b50620001fc600260009054906101000a900473ffffffffffffffffffffffffffffffffffffffff16620001d16200020260201b60201c565b600a620001df919062000622565b6308f0d180620001f0919062000673565b6200020b60201b60201c565b620008b8565b6000601b905090565b600854600954111562000255576040517f08c379a00000000000000000000000000000000000000000000000000000000081526004016200024c9062000735565b60405180910390fd5b600073ffffffffffffffffffffffffffffffffffffffff168273ffffffffffffffffffffffffffffffffffffffff1603620002c7576040517f08c379a0000000000000000000000000000000000000000000000000000000008152600401620002be90620007a7565b60405180910390fd5b620002db60008383620003ce60201b60201c565b8060096000828254620002ef9190620007c9565b9250508190555080600360008473ffffffffffffffffffffffffffffffffffffffff1673ffffffffffffffffffffffffffffffffffffffff1681526020019081526020016000206000828254620003479190620007c9565b925050819055508173ffffffffffffffffffffffffffffffffffffffff16600073ffffffffffffffffffffffffffffffffffffffff167fddf252ad1be2c89b69c2b068fc378daa952ba7f163c4a11628f55a4df523b3ef83604051620003ae919062000837565b60405180910390a3620003ca60008383620003d360201b60201c565b5050565b505050565b505050565b828054620003e69062000883565b90600052602060002090601f0160209004810192826200040a576000855562000456565b82601f106200042557805160ff191683800117855562000456565b8280016001018555821562000456579182015b828111156200045557825182559160200191906001019062000438565b5b50905062000465919062000469565b5090565b5b80821115620004845760008160009055506001016200046a565b5090565b7f4e487b7100000000000000000000000000000000000000000000000000000000600052601160045260246000fd5b60008160011c9050919050565b6000808291508390505b60018511156200051657808604811115620004ee57620004ed62000488565b5b6001851615620004fe5780820291505b80810290506200050e85620004b7565b9450620004ce565b94509492505050565b60008262000531576001905062000604565b8162000541576000905062000604565b81600181146200055a576002811462000565576200059b565b600191505062000604565b60ff8411156200057a576200057962000488565b5b8360020a91508482111562000594576200059362000488565b5b5062000604565b5060208310610133831016604e8410600b8410161715620005d55782820a905083811115620005cf57620005ce62000488565b5b62000604565b620005e48484846001620004c4565b92509050818404811115620005fe57620005fd62000488565b5b81810290505b9392505050565b6000819050919050565b600060ff82169050919050565b60006200062f826200060b565b91506200063c8362000615565b92506200066b7fffffffffffffffffffffffffffffffffffffffffffffffffffffffffffffffff84846200051f565b905092915050565b600062000680826200060b565b91506200068d836200060b565b9250817fffffffffffffffffffffffffffffffffffffffffffffffffffffffffffffffff0483118215151615620006c957620006c862000488565b5b828202905092915050565b600082825260208201905092915050565b7f5242544e3a205265616368656420546f74616c737570706c7900000000000000600082015250565b60006200071d601983620006d4565b91506200072a82620006e5565b602082019050919050565b6000602082019050818103600083015262000750816200070e565b9050919050565b7f5242544e3a206d696e7420746f207a65726f206163636f756e74000000000000600082015250565b60006200078f601a83620006d4565b91506200079c8262000757565b602082019050919050565b60006020820190508181036000830152620007c28162000780565b9050919050565b6000620007d6826200060b565b9150620007e3836200060b565b9250827fffffffffffffffffffffffffffffffffffffffffffffffffffffffffffffffff038211156200081b576200081a62000488565b5b828201905092915050565b62000831816200060b565b82525050565b60006020820190506200084e600083018462000826565b92915050565b7f4e487b7100000000000000000000000000000000000000000000000000000000600052602260045260246000fd5b600060028204905060018216806200089c57607f821691505b602082108103620008b257620008b162000854565b5b50919050565b61281580620008c86000396000f3fe60806040526004361061016a5760003560e01c8063966ff650116100d1578063b69ef8a81161008a578063e9f6bd0b11610064578063e9f6bd0b14610515578063f0a3563c14610540578063f96512cc1461057d578063fa835282146105a857610179565b8063b69ef8a8146104a3578063c1cbbca7146104ce578063cfae52e1146104ea57610179565b8063966ff6501461037f578063a2309ff8146103aa578063a9059cbb146103d5578063a9456fa914610412578063a9e7c2e51461044f578063b42568881461047857610179565b80635b6b431d116101235780635b6b431d1461026f57806370a082311461029857806378e97925146102d5578063868dc67c146103005780638f84aa091461032957806395d89b411461035457610179565b806306fdde031461017e5780631268ca0e146101a957806318160ddd146101b357806323b872dd146101de578063313ce5671461021b57806346db8ac11461024657610179565b36610179576101776105d3565b005b600080fd5b34801561018a57600080fd5b506101936105e5565b6040516101a09190611847565b60405180910390f35b6101b16105d3565b005b3480156101bf57600080fd5b506101c8610673565b6040516101d59190611882565b60405180910390f35b3480156101ea57600080fd5b506102056004803603810190610200919061193b565b610679565b60405161021291906119a9565b60405180910390f35b34801561022757600080fd5b506102306106dd565b60405161023d91906119e0565b60405180910390f35b34801561025257600080fd5b5061026d60048036038101906102689190611a35565b6106e6565b005b34801561027b57600080fd5b5061029660048036038101906102919190611a62565b610784565b005b3480156102a457600080fd5b506102bf60048036038101906102ba9190611a8f565b610880565b6040516102cc9190611882565b60405180910390f35b3480156102e157600080fd5b506102ea6108c9565b6040516102f79190611882565b60405180910390f35b34801561030c57600080fd5b5061032760048036038101906103229190611bf1565b6108cf565b005b34801561033557600080fd5b5061033e6109d3565b60405161034b9190611c5c565b60405180910390f35b34801561036057600080fd5b506103696109fd565b6040516103769190611847565b60405180910390f35b34801561038b57600080fd5b50610394610a8b565b6040516103a19190611882565b60405180910390f35b3480156103b657600080fd5b506103bf610a91565b6040516103cc9190611882565b60405180910390f35b3480156103e157600080fd5b506103fc60048036038101906103f79190611c77565b610a97565b60405161040991906119a9565b60405180910390f35b34801561041e57600080fd5b5061043960048036038101906104349190611a8f565b610b00565b6040516104469190611d63565b60405180910390f35b34801561045b57600080fd5b5061047660048036038101906104719190611a62565b610b9c565b005b34801561048457600080fd5b5061048d610daa565b60405161049a9190611882565b60405180910390f35b3480156104af57600080fd5b506104b8610db0565b6040516104c59190611882565b60405180910390f35b6104e860048036038101906104e39190611a62565b610df7565b005b3480156104f657600080fd5b506104ff610fa8565b60405161050c9190611882565b60405180910390f35b34801561052157600080fd5b5061052a610fae565b6040516105379190611882565b60405180910390f35b34801561054c57600080fd5b5061056760048036038101906105629190611a8f565b610fb4565b6040516105749190611e2b565b60405180910390f35b34801561058957600080fd5b50610592611063565b60405161059f9190611882565b60405180910390f35b3480156105b457600080fd5b506105bd611069565b6040516105ca9190611d63565b60405180910390f35b6105e36105de6110c6565b610df7565b565b600080546105f290611e76565b80601f016020809104026020016040519081016040528092919081815260200182805461061e90611e76565b801561066b5780601f106106405761010080835404028352916020019161066b565b820191906000526020600020905b81548152906001019060200180831161064e57829003601f168201915b505050505081565b60085481565b6000600360008573ffffffffffffffffffffffffffffffffffffffff1673ffffffffffffffffffffffffffffffffffffffff168152602001908152602001600020548211156106c757600080fd5b6106d28484846110dd565b600190509392505050565b6000601b905090565b600260009054906101000a900473ffffffffffffffffffffffffffffffffffffffff1673ffffffffffffffffffffffffffffffffffffffff163373ffffffffffffffffffffffffffffffffffffffff1614610776576040517f08c379a000000000000000000000000000000000000000000000000000000000815260040161076d90611ef3565b60405180910390fd5b8061ffff1660108190555050565b600260009054906101000a900473ffffffffffffffffffffffffffffffffffffffff1673ffffffffffffffffffffffffffffffffffffffff163373ffffffffffffffffffffffffffffffffffffffff1614610814576040517f08c379a000000000000000000000000000000000000000000000000000000000815260040161080b90611ef3565b60405180910390fd5b600260009054906101000a900473ffffffffffffffffffffffffffffffffffffffff1673ffffffffffffffffffffffffffffffffffffffff166108fc829081150290604051600060405180830381858888f1935050505015801561087c573d6000803e3d6000fd5b5050565b6000600360008373ffffffffffffffffffffffffffffffffffffffff1673ffffffffffffffffffffffffffffffffffffffff168152602001908152602001600020549050919050565b600c5481565b6010546108da6110c6565b111561091b576040517f08c379a000000000000000000000000000000000000000000000000000000000815260040161091290611f5f565b60405180910390fd5b60408151111561092a57600080fd5b610934338361135f565b81600760003373ffffffffffffffffffffffffffffffffffffffff1673ffffffffffffffffffffffffffffffffffffffff168152602001908152602001600020826040516109829190611fbb565b9081526020016040518091039020819055507f6d75c622f697bb546068ca41b993f819af5d79d0029b915953e709c509e342783382846040516109c793929190611fd2565b60405180910390a15050565b6000600260009054906101000a900473ffffffffffffffffffffffffffffffffffffffff16905090565b60018054610a0a90611e76565b80601f0160208091040260200160405190810160405280929190818152602001828054610a3690611e76565b8015610a835780601f10610a5857610100808354040283529160200191610a83565b820191906000526020600020905b815481529060010190602001808311610a6657829003601f168201915b505050505081565b600a5481565b60095481565b6000600360003373ffffffffffffffffffffffffffffffffffffffff1673ffffffffffffffffffffffffffffffffffffffff16815260200190815260200160002054821115610ae557600080fd5b6000339050610af58185856110dd565b600191505092915050565b610b08611766565b60005b61015f811015610b96576005600082815260200190815260200160002060008473ffffffffffffffffffffffffffffffffffffffff1673ffffffffffffffffffffffffffffffffffffffff16815260200190815260200160002054828261015f8110610b7a57610b79612010565b5b6020020181815250508080610b8e9061206e565b915050610b0b565b50919050565b80610ba56110c6565b11610be5576040517f08c379a0000000000000000000000000000000000000000000000000000000008152600401610bdc90612128565b60405180910390fd5b6006600082815260200190815260200160002060003373ffffffffffffffffffffffffffffffffffffffff1673ffffffffffffffffffffffffffffffffffffffff16815260200190815260200160002060009054906101000a900460ff1680610c61575060006004600083815260200190815260200160002054145b610da75760006005600083815260200190815260200160002060003373ffffffffffffffffffffffffffffffffffffffff1673ffffffffffffffffffffffffffffffffffffffff16815260200190815260200160002054905060006004600084815260200190815260200160002054610cd984611550565b610ce39190612177565b905060008282610cf391906121a8565b905060016006600086815260200190815260200160002060003373ffffffffffffffffffffffffffffffffffffffff1673ffffffffffffffffffffffffffffffffffffffff16815260200190815260200160002060006101000a81548160ff021916908315150217905550610d68338261156c565b7f51223fdc0a25891366fb358b4af9fe3c381b1566e287c61a29d01c8a173fe4f4843383604051610d9b93929190612202565b60405180910390a15050505b50565b600b5481565b6000600360003373ffffffffffffffffffffffffffffffffffffffff1673ffffffffffffffffffffffffffffffffffffffff16815260200190815260200160002054905090565b66b1a2bc2ec50000341015610e41576040517f08c379a0000000000000000000000000000000000000000000000000000000008152600401610e3890612285565b60405180910390fd5b600b54610e4c611713565b1015610e8d576040517f08c379a0000000000000000000000000000000000000000000000000000000008152600401610e8490612317565b60405180910390fd5b600d54610e986110c6565b1115610ed9576040517f08c379a0000000000000000000000000000000000000000000000000000000008152600401610ed0906123a9565b60405180910390fd5b346005600083815260200190815260200160002060003373ffffffffffffffffffffffffffffffffffffffff1673ffffffffffffffffffffffffffffffffffffffff1681526020019081526020016000206000828254610f3991906123c9565b9250508190555034600460008381526020019081526020016000206000828254610f6391906123c9565b925050819055507ffddc74038109a91f1f8dc6d1fc108fd0dcfe2623271f99e046ec3f20e4c356f4813334604051610f9d93929190612202565b60405180910390a150565b600e5481565b600d5481565b610fbc61178a565b60005b61015f81101561105d576006600082815260200190815260200160002060008473ffffffffffffffffffffffffffffffffffffffff1673ffffffffffffffffffffffffffffffffffffffff16815260200190815260200160002060009054906101000a900460ff16828261015f811061103b5761103a612010565b5b60200201901515908115158152505080806110559061206e565b915050610fbf565b50919050565b600f5481565b611071611766565b60005b61015f8110156110c2576004600082815260200190815260200160002054828261015f81106110a6576110a5612010565b5b60200201818152505080806110ba9061206e565b915050611074565b5090565b60006110d86110d3611713565b61171b565b905090565b600073ffffffffffffffffffffffffffffffffffffffff168373ffffffffffffffffffffffffffffffffffffffff160361114c576040517f08c379a000000000000000000000000000000000000000000000000000000000815260040161114390612491565b60405180910390fd5b600073ffffffffffffffffffffffffffffffffffffffff168273ffffffffffffffffffffffffffffffffffffffff16036111bb576040517f08c379a00000000000000000000000000000000000000000000000000000000081526004016111b290612523565b60405180910390fd5b6111c683838361175c565b6000600360008573ffffffffffffffffffffffffffffffffffffffff1673ffffffffffffffffffffffffffffffffffffffff1681526020019081526020016000205490508181101561124d576040517f08c379a0000000000000000000000000000000000000000000000000000000008152600401611244906125b5565b60405180910390fd5b818103600360008673ffffffffffffffffffffffffffffffffffffffff1673ffffffffffffffffffffffffffffffffffffffff1681526020019081526020016000208190555081600360008573ffffffffffffffffffffffffffffffffffffffff1673ffffffffffffffffffffffffffffffffffffffff16815260200190815260200160002060008282546112e291906123c9565b925050819055508273ffffffffffffffffffffffffffffffffffffffff168473ffffffffffffffffffffffffffffffffffffffff167fddf252ad1be2c89b69c2b068fc378daa952ba7f163c4a11628f55a4df523b3ef846040516113469190611882565b60405180910390a3611359848484611761565b50505050565b600073ffffffffffffffffffffffffffffffffffffffff168273ffffffffffffffffffffffffffffffffffffffff16036113ce576040517f08c379a00000000000000000000000000000000000000000000000000000000081526004016113c590612621565b60405180910390fd5b6113da8260008361175c565b6000600360008473ffffffffffffffffffffffffffffffffffffffff1673ffffffffffffffffffffffffffffffffffffffff16815260200190815260200160002054905081811015611461576040517f08c379a0000000000000000000000000000000000000000000000000000000008152600401611458906126b3565b60405180910390fd5b818103600360008573ffffffffffffffffffffffffffffffffffffffff1673ffffffffffffffffffffffffffffffffffffffff1681526020019081526020016000208190555081600860008282546114b991906126d3565b9250508190555081600a60008282546114d291906123c9565b92505081905550600073ffffffffffffffffffffffffffffffffffffffff168373ffffffffffffffffffffffffffffffffffffffff167fddf252ad1be2c89b69c2b068fc378daa952ba7f163c4a11628f55a4df523b3ef846040516115379190611882565b60405180910390a361154b83600084611761565b505050565b600080821461156157600f54611565565b600e545b9050919050565b60085460095411156115b3576040517f08c379a00000000000000000000000000000000000000000000000000000000081526004016115aa90612753565b60405180910390fd5b600073ffffffffffffffffffffffffffffffffffffffff168273ffffffffffffffffffffffffffffffffffffffff1603611622576040517f08c379a0000000000000000000000000000000000000000000000000000000008152600401611619906127bf565b60405180910390fd5b61162e6000838361175c565b806009600082825461164091906123c9565b9250508190555080600360008473ffffffffffffffffffffffffffffffffffffffff1673ffffffffffffffffffffffffffffffffffffffff168152602001908152602001600020600082825461169691906123c9565b925050819055508173ffffffffffffffffffffffffffffffffffffffff16600073ffffffffffffffffffffffffffffffffffffffff167fddf252ad1be2c89b69c2b068fc378daa952ba7f163c4a11628f55a4df523b3ef836040516116fb9190611882565b60405180910390a361170f60008383611761565b5050565b600042905090565b6000600c548210611752576001610dd4600c548461173991906126d3565b6117439190612177565b61174d91906123c9565b611755565b60005b9050919050565b505050565b505050565b60405180612be0016040528061015f90602082028036833780820191505090505090565b60405180612be0016040528061015f90602082028036833780820191505090505090565b600081519050919050565b600082825260208201905092915050565b60005b838110156117e85780820151818401526020810190506117cd565b838111156117f7576000848401525b50505050565b6000601f19601f8301169050919050565b6000611819826117ae565b61182381856117b9565b93506118338185602086016117ca565b61183c816117fd565b840191505092915050565b60006020820190508181036000830152611861818461180e565b905092915050565b6000819050919050565b61187c81611869565b82525050565b60006020820190506118976000830184611873565b92915050565b6000604051905090565b600080fd5b600080fd5b600073ffffffffffffffffffffffffffffffffffffffff82169050919050565b60006118dc826118b1565b9050919050565b6118ec816118d1565b81146118f757600080fd5b50565b600081359050611909816118e3565b92915050565b61191881611869565b811461192357600080fd5b50565b6000813590506119358161190f565b92915050565b600080600060608486031215611954576119536118a7565b5b6000611962868287016118fa565b9350506020611973868287016118fa565b925050604061198486828701611926565b9150509250925092565b60008115159050919050565b6119a38161198e565b82525050565b60006020820190506119be600083018461199a565b92915050565b600060ff82169050919050565b6119da816119c4565b82525050565b60006020820190506119f560008301846119d1565b92915050565b600061ffff82169050919050565b611a12816119fb565b8114611a1d57600080fd5b50565b600081359050611a2f81611a09565b92915050565b600060208284031215611a4b57611a4a6118a7565b5b6000611a5984828501611a20565b91505092915050565b600060208284031215611a7857611a776118a7565b5b6000611a8684828501611926565b91505092915050565b600060208284031215611aa557611aa46118a7565b5b6000611ab3848285016118fa565b91505092915050565b600080fd5b600080fd5b7f4e487b7100000000000000000000000000000000000000000000000000000000600052604160045260246000fd5b611afe826117fd565b810181811067ffffffffffffffff82111715611b1d57611b1c611ac6565b5b80604052505050565b6000611b3061189d565b9050611b3c8282611af5565b919050565b600067ffffffffffffffff821115611b5c57611b5b611ac6565b5b611b65826117fd565b9050602081019050919050565b82818337600083830152505050565b6000611b94611b8f84611b41565b611b26565b905082815260208101848484011115611bb057611baf611ac1565b5b611bbb848285611b72565b509392505050565b600082601f830112611bd857611bd7611abc565b5b8135611be8848260208601611b81565b91505092915050565b60008060408385031215611c0857611c076118a7565b5b6000611c1685828601611926565b925050602083013567ffffffffffffffff811115611c3757611c366118ac565b5b611c4385828601611bc3565b9150509250929050565b611c56816118d1565b82525050565b6000602082019050611c716000830184611c4d565b92915050565b60008060408385031215611c8e57611c8d6118a7565b5b6000611c9c858286016118fa565b9250506020611cad85828601611926565b9150509250929050565b600061015f9050919050565b600081905092915050565b6000819050919050565b611ce181611869565b82525050565b6000611cf38383611cd8565b60208301905092915050565b6000602082019050919050565b611d1581611cb7565b611d1f8184611cc3565b9250611d2a82611cce565b8060005b83811015611d5b578151611d428782611ce7565b9650611d4d83611cff565b925050600181019050611d2e565b505050505050565b6000612be082019050611d796000830184611d0c565b92915050565b600061015f9050919050565b600081905092915050565b6000819050919050565b611da98161198e565b82525050565b6000611dbb8383611da0565b60208301905092915050565b6000602082019050919050565b611ddd81611d7f565b611de78184611d8b565b9250611df282611d96565b8060005b83811015611e23578151611e0a8782611daf565b9650611e1583611dc7565b925050600181019050611df6565b505050505050565b6000612be082019050611e416000830184611dd4565b92915050565b7f4e487b7100000000000000000000000000000000000000000000000000000000600052602260045260246000fd5b60006002820490506001821680611e8e57607f821691505b602082108103611ea157611ea0611e47565b5b50919050565b7f6e6f74206f776e65720000000000000000000000000000000000000000000000600082015250565b6000611edd6009836117b9565b9150611ee882611ea7565b602082019050919050565b60006020820190508181036000830152611f0c81611ed0565b9050919050565b7f54686520526567697374726174696f6e206e6f74207965742073746172746564600082015250565b6000611f496020836117b9565b9150611f5482611f13565b602082019050919050565b60006020820190508181036000830152611f7881611f3c565b9050919050565b600081905092915050565b6000611f95826117ae565b611f9f8185611f7f565b9350611faf8185602086016117ca565b80840191505092915050565b6000611fc78284611f8a565b915081905092915050565b6000606082019050611fe76000830186611c4d565b8181036020830152611ff9818561180e565b90506120086040830184611873565b949350505050565b7f4e487b7100000000000000000000000000000000000000000000000000000000600052603260045260246000fd5b7f4e487b7100000000000000000000000000000000000000000000000000000000600052601160045260246000fd5b600061207982611869565b91507fffffffffffffffffffffffffffffffffffffffffffffffffffffffffffffffff82036120ab576120aa61203f565b5b600182019050919050565b7f596f752043616e277420636c61696d20796f757220746f6b656e207768656e2060008201527f736c6f747320617265206f70656e000000000000000000000000000000000000602082015250565b6000612112602e836117b9565b915061211d826120b6565b604082019050919050565b6000602082019050818103600083015261214181612105565b9050919050565b7f4e487b7100000000000000000000000000000000000000000000000000000000600052601260045260246000fd5b600061218282611869565b915061218d83611869565b92508261219d5761219c612148565b5b828204905092915050565b60006121b382611869565b91506121be83611869565b9250817fffffffffffffffffffffffffffffffffffffffffffffffffffffffffffffffff04831182151516156121f7576121f661203f565b5b828202905092915050565b60006060820190506122176000830186611873565b6122246020830185611c4d565b6122316040830184611873565b949350505050565b7f4d696e696d756d20436f6e747269627574696f6e20697320302e303520455448600082015250565b600061226f6020836117b9565b915061227a82612239565b602082019050919050565b6000602082019050818103600083015261229e81612262565b9050919050565b7f54686520436f6e747269627574696f6e2074696d65206973206e6f74206f706560008201527f6e20796574000000000000000000000000000000000000000000000000000000602082015250565b60006123016025836117b9565b915061230c826122a5565b604082019050919050565b60006020820190508181036000830152612330816122f4565b9050919050565b7f416c6c2074686520436f6e747269627574696f6e20736c6f747320617265206360008201527f6c6f736564000000000000000000000000000000000000000000000000000000602082015250565b60006123936025836117b9565b915061239e82612337565b604082019050919050565b600060208201905081810360008301526123c281612386565b9050919050565b60006123d482611869565b91506123df83611869565b9250827fffffffffffffffffffffffffffffffffffffffffffffffffffffffffffffffff038211156124145761241361203f565b5b828201905092915050565b7f5242544e3a207472616e736665722066726f6d20746865207a65726f2061646460008201527f7265737300000000000000000000000000000000000000000000000000000000602082015250565b600061247b6024836117b9565b91506124868261241f565b604082019050919050565b600060208201905081810360008301526124aa8161246e565b9050919050565b7f5242544e3a207472616e7366657220746f20746865207a65726f20616464726560008201527f7373000000000000000000000000000000000000000000000000000000000000602082015250565b600061250d6022836117b9565b9150612518826124b1565b604082019050919050565b6000602082019050818103600083015261253c81612500565b9050919050565b7f5242544e3a207472616e7366657220616d6f756e74206578636565647320626160008201527f6c616e6365000000000000000000000000000000000000000000000000000000602082015250565b600061259f6025836117b9565b91506125aa82612543565b604082019050919050565b600060208201905081810360008301526125ce81612592565b9050919050565b7f5242544e3a206275726e2066726f6d20746865207a65726f2061646472657373600082015250565b600061260b6020836117b9565b9150612616826125d5565b602082019050919050565b6000602082019050818103600083015261263a816125fe565b9050919050565b7f5242544e3a206275726e20616d6f756e7420657863656564732062616c616e6360008201527f6500000000000000000000000000000000000000000000000000000000000000602082015250565b600061269d6021836117b9565b91506126a882612641565b604082019050919050565b600060208201905081810360008301526126cc81612690565b9050919050565b60006126de82611869565b91506126e983611869565b9250828210156126fc576126fb61203f565b5b828203905092915050565b7f5242544e3a205265616368656420546f74616c737570706c7900000000000000600082015250565b600061273d6019836117b9565b915061274882612707565b602082019050919050565b6000602082019050818103600083015261276c81612730565b9050919050565b7f5242544e3a206d696e7420746f207a65726f206163636f756e74000000000000600082015250565b60006127a9601a836117b9565b91506127b482612773565b602082019050919050565b600060208201905081810360008301526127d88161279c565b905091905056fea264697066735822122083d2d11bc1e31948e207a1bdb2584609dde9af96f9be594e2dd93be685c3654d64736f6c634300080d0033",
  "immutableReferences": {},
  "source": "//SPDX-License-Identifier: MIT\r\n\r\npragma solidity >=0.6.0 <0.9.0;\r\n\r\ncontract orbitaintoken {\r\n\r\n    event Transfer(address indexed from, address indexed to, uint256 amount);\r\n\r\n    string public name = \"Orbitain\";//token name public view\r\n    string public symbol = \"ORBT\";//token symbol public view\r\n    address payable owner = payable(msg.sender);\r\n\r\n    mapping(address => uint256) private balances;\r\n    mapping(uint => uint) private dailyTotals;\r\n    mapping(uint => mapping(address => uint)) private userContribute;\r\n    mapping(uint => mapping(address => bool)) private claimed;\r\n    mapping(address => mapping(string => uint)) private keys;\r\n\r\n    //function decimals.\r\n    function decimals() public view virtual returns (uint8) {\r\n        return 27;\r\n    }\r\n\r\n    uint256 public totalSupply = 1000000000 * 10 ** decimals();\r\n    uint256 public totalMinted;\r\n    uint256 public totalBurnt;\r\n    uint public openTime = 1651843200;\r\n    uint public startTime = 1651843800;\r\n    uint public numberOfDays = 350;\r\n    uint public createFirstDay = 150000000 * 10 ** decimals();\r\n    uint public createPerDay = 2000000 * 10 ** decimals();\r\n    uint private startDay;\r\n\r\n    event LogContribution (uint window, address user, uint amount);\r\n    event LogClaim (uint window, address user, uint amount);\r\n    event LogRegister (address user, string key, uint amount);\r\n    \r\n    constructor()  {\r\n        _mint(owner, 150000000 * 10 ** decimals());//mint 200 million token to owner address\r\n    }\r\n\r\n    //Owner withdrawel BNB address code start\r\n\r\n    modifier onlyOwner() {\r\n        require(msg.sender == owner, \"not owner\");\r\n        _;\r\n    }\r\n\r\n    function Withdraw(uint256 amount) public onlyOwner{\r\n        owner.transfer(amount);\r\n    }\r\n\r\n    //Owner withdrawel BNB address code end\r\n\r\n\r\n    //Time based function for token distribution code start   \r\n\r\n    function time() internal returns (uint){\r\n        return block.timestamp;\r\n    }\r\n\r\n    function today() internal returns (uint){\r\n        return dayFor(time());\r\n    }\r\n\r\n    function dayFor (uint timeStamp) internal returns (uint){\r\n        return timeStamp < startTime ? 0 : (timeStamp - startTime) / 59 minutes + 1;\r\n    }\r\n\r\n    function createOnDay(uint day) internal returns (uint) {\r\n        return day == 0 ? createFirstDay : createPerDay;\r\n    }\r\n\r\n    //Time based function for token distribution code ends.\r\n\r\n    //Contribution and claming functions code starts\r\n\r\n    function contribute(uint slotNumber) public payable {\r\n        require(msg.value >= 0.05 ether, \"Minimum Contribution is 0.05 ETH\");\r\n        require(time() >= openTime, \"The Contribution time is not open yet\");\r\n        require (today() <= numberOfDays, \"All the Contribution slots are closed\");\r\n\r\n\r\n        userContribute[slotNumber][msg.sender] += msg.value;\r\n        dailyTotals[slotNumber] += msg.value;\r\n        emit LogContribution(slotNumber, msg.sender, msg.value);\r\n    }\r\n\r\n    function contributeNow() public payable{\r\n        contribute(today());\r\n    }\r\n\r\n    receive () external payable{\r\n        contributeNow();\r\n    }\r\n\r\n    function claimToken(uint slotNumber) public {\r\n        require(today() > slotNumber, \"You Can't claim your token when slots are open\");\r\n\r\n        if (claimed[slotNumber][msg.sender] || dailyTotals[slotNumber] == 0){\r\n            return;\r\n        }\r\n        \r\n        uint userTotal = userContribute[slotNumber][msg.sender];\r\n        uint price = createOnDay(slotNumber) / dailyTotals[slotNumber];\r\n        uint reward = price * userTotal;\r\n\r\n        claimed[slotNumber][msg.sender]=true;\r\n        _mint(msg.sender, reward);\r\n\r\n        emit LogClaim(slotNumber, msg.sender, reward);\r\n\r\n    }\r\n\r\n    //Contribution and claming functions code ends.\r\n\r\n    function setRegDate(uint16 day) public onlyOwner{\r\n        startDay = day;\r\n    }\r\n\r\n    function burnToRegister(uint256 amount, string memory publicKey) public {\r\n        require(today() <= startDay, \"The Registration not yet started\");\r\n        require(bytes(publicKey).length <= 64);\r\n\r\n        _burn(msg.sender, amount);\r\n        keys[msg.sender][publicKey] = amount;\r\n        emit LogRegister(msg.sender, publicKey, amount );        \r\n    }\r\n\r\n    //token minting function\r\n    function _mint(address account, uint256 amount) internal virtual {\r\n        require (totalMinted <= totalSupply, \"RBTN: Reached Totalsupply\");\r\n        require (account != address(0), \"RBTN: mint to zero account\");\r\n\r\n        _beforeTokenTransfer(address(0), account, amount);\r\n        totalMinted += amount;\r\n        balances[account] += amount;\r\n        emit Transfer(address(0), account, amount);\r\n\r\n        _afterTokenTransfer(address(0), account, amount);\r\n    }\r\n\r\n    //token burning function\r\n    function _burn(address account, uint256 amount) internal virtual {\r\n        require(account != address(0), \"RBTN: burn from the zero address\");\r\n\r\n        _beforeTokenTransfer(account, address(0), amount);\r\n\r\n        uint256 accountBalance = balances[account];\r\n        require(accountBalance >= amount, \"RBTN: burn amount exceeds balance\");\r\n        unchecked {\r\n            balances[account] = accountBalance - amount;\r\n        }\r\n        totalSupply -= amount;\r\n        totalBurnt += amount;\r\n\r\n        emit Transfer(account, address(0), amount);\r\n\r\n        _afterTokenTransfer(account, address(0), amount);\r\n    }\r\n\r\n    //Orbitain call function code starts\r\n\r\n    function balance() public view returns (uint256) {\r\n        return balances[msg.sender];\r\n    }\r\n\r\n    function ownerAddress () public view returns(address){\r\n        return owner;\r\n    }\r\n\r\n    function balanceOf (address account) public view returns(uint256){\r\n        return balances[account];\r\n    }\r\n\r\n    function totalDailyContribution() public view returns(uint[351] memory result){\r\n        for (uint i = 0; i < 351; i++){\r\n            result[i] = dailyTotals[i];\r\n        }\r\n    }\r\n\r\n    function userContributed(address user) public view returns (uint[351] memory result) {\r\n        for (uint i = 0; i < 351; i++) {\r\n            result[i] = userContribute[i][user];\r\n        }\r\n    }\r\n\r\n    function userClaims(address user) public view returns (bool[351] memory result) {\r\n        for (uint i = 0; i < 351; i++) {\r\n            result[i] = claimed[i] [user];\r\n        }\r\n    }\r\n\r\n    //Orbitain call function code ends\r\n\r\n    //Orbitain Token transfer process functions starts\r\n\r\n    function transferFrom(address from, address to, uint256 amount) public returns (bool) {\r\n        require(amount <= balances[from]);\r\n\r\n        _transfer(from, to, amount);\r\n        return true;\r\n    }\r\n\r\n    function transfer(address to, uint256 amount) public returns (bool) {\r\n        require(amount <= balances[msg.sender]);\r\n\r\n        address sender = msg.sender;\r\n        _transfer(sender, to, amount);\r\n        return true;\r\n    }\r\n\r\n    function _transfer(\r\n        address from,\r\n        address to,\r\n        uint256 amount\r\n    ) internal virtual {\r\n        require(from != address(0), \"RBTN: transfer from the zero address\");\r\n        require(to != address(0), \"RBTN: transfer to the zero address\");\r\n\r\n        _beforeTokenTransfer(from, to, amount);\r\n\r\n        uint256 fromBalance = balances[from];\r\n        require(fromBalance >= amount, \"RBTN: transfer amount exceeds balance\");\r\n        unchecked {\r\n            balances[from] = fromBalance - amount;\r\n        }\r\n        balances[to] += amount;\r\n\r\n        emit Transfer(from, to, amount);\r\n\r\n        _afterTokenTransfer(from, to, amount);\r\n    }\r\n\r\n    function _beforeTokenTransfer(\r\n        address from,\r\n        address to,\r\n        uint256 amount\r\n    ) internal virtual {}\r\n\r\n    function _afterTokenTransfer(\r\n        address from,\r\n        address to,\r\n        uint256 amount\r\n    ) internal virtual {}\r\n\r\n    //Orbitain Token transfer process functions ends.\r\n}",
  "sourcePath": "D:\\Orbitain\\RBTN-Token-Distribution\\contracts\\OrbtTokenDistribution.sol",
  "compiler": {
    "name": "solc",
    "version": "0.8.13+commit.abaa5c0e.Emscripten.clang"
  },
  "schemaVersion": "3.4.7",
  "updatedAt": "2022-05-11T20:52:12.854Z",
  "devdoc": {
    "kind": "dev",
    "methods": {},
    "version": 1
  },
  "userdoc": {
    "kind": "user",
    "methods": {},
    "version": 1
  }
}